:020000040800F2
:10000000D8050020450100084D0100084F010008F7
:1000100051010008530100085501000800000000CC
:100020000000000000000000000000005701000870
:1000300059010008000000005B0100085D01000894
:100040005F0100085F0100085F0100085F01000810
:100050005F0100085F0100085F0100085F01000800
:100060005F0100085F0100085F0100085F010008F0
:100070005F0100085F0100085F0100085F010008E0
:100080005F0100085F0100085F0100085F010008D0
:100090005F0100085F0100085F0100085F010008C0
:1000A0005F0100085F0100085F0100085F010008B0
:1000B0005F0100085F0100085F0100085F010008A0
:1000C0005F0100085F0100085F0100085F01000890
:1000D0005F010008B9090008890A00085F010008EB
:1000E0005F0100085F0100085F0100085F01000870
:1000F0005F0100085F0100085F0100085F01000860
:100100005F0100085F0100085F0100085F0100084F
:100110005F0100085F0100085F0100085F0100083F
:100120005F0100085F0100085F0100085F0100082F
:10013000DFF80CD000F018F800480047AD0D0008BB
:10014000D80500200648804706480047FEE7FEE73E
:10015000FEE7FEE7FEE7FEE7FEE7FEE7FEE7FEE777
:100160008106000831010008064C074D06E0E068F2
:1001700040F0010394E8070098471034AC42F6D3EE
:10018000FFF7DAFFA40F0008C40F000808B501212B
:10019000102000F073F94DF6C000ADF80000022009
:1001A0008DF8020010208DF8030069462A4800F0FF
:1001B00059F80121082000F061F90620ADF800008F
:1001C00002208DF8020010208DF8030069462348B4
:1001D00000F048F80121042000F050F941F6030036
:1001E000ADF8000002208DF8020010208DF8030009
:1001F00069461B4800F036F84FF40061184800F0DB
:10020000C5F84FF48051164800F0C0F84FF4006173
:10021000114800F0BBF84FF480510F4800F0B6F8D9
:100220004FF400410C4800F0B1F84FF480410A4807
:1002300000F0AEF80221094800F0A8F804210748B0
:1002400000F0A6F80121064800F0A2F802210448B7
:1002500000F09CF808BD000000100140000C0140B7
:10026000000801402DE9F04102460025002600204B
:1002700000230024002791F803C00CF00F0591F82B
:1002800003C00CF0100CBCF1000F03D091F802C0B9
:100290004CEA050591F800C0BCF1000F31D014689C
:1002A00000202BE04FF0010C0CFA00F3B1F800C075
:1002B0000CEA03069E4220D183004FF00F0C0CFA8B
:1002C00003F7BC4305FA03FC4CEA040491F803C0AD
:1002D000BCF1280F06D14FF0010C0CFA00FCC2F85B
:1002E00014C00AE091F803C0BCF1480F05D14FF0EB
:1002F000010C0CFA00FCC2F810C0401C0828D1D335
:100300001460B1F800C0BCF1FF0F34DD5468002068
:100310002EE000F1080C4FF0010808FA0CF3B1F8D8
:1003200000C00CEA03069E4221D183004FF00F0C5F
:100330000CFA03F7BC4305FA03FC4CEA040491F8F9
:1003400003C0BCF1280F05D100F1080C08FA0CF825
:10035000C2F8148091F803C0BCF1480F07D100F136
:10036000080C4FF0010808FA0CF8C2F81080401C85
:100370000828CED35460BDE8F0810246002093687F
:100380000B400BB1012000E0002070474161704735
:100390000161704708B50121042000F06FF8F020DA
:1003A000ADF8000002208DF8020010208DF8030047
:1003B00069460448FFF756FFF0210248FFF7E8FFBF
:1003C00008BD00000008014008B540F22120ADF84A
:1003D000000048208DF8030003208DF802006946D4
:1003E0000148FFF73FFF08BD000C014070B5002138
:1003F00000230F22C47804B3154C246804F4E0648D
:10040000C4F5E064210AC1F10403CA40447804FA47
:1004100003F184781440214309010E4C0678A1555C
:10042000047804F01F050124AC4005786D11AD007F
:1004300005F1E025C5F8004109E0047804F01F0546
:100440000124AC40044D0678761145F8264070BD75
:100450000CED00E000E400E080E100E029B1064A94
:10046000D2690243044BDA6104E0034AD269824351
:10047000014BDA61704700000010024029B1064AC2
:1004800092690243044B9A6104E0034A92698243F1
:10049000014B9A61704700000010024030B5002106
:1004A0000022002400232D4D6D6805F00C0121B1C0
:1004B000042905D0082923D105E0294D056022E053
:1004C000274D05601FE0254D6D6805F47012234D22
:1004D0006D6805F48034022505EB92421CB9214D6C
:1004E000554305600BE01D4D6D6805F400351DB1E9
:1004F0001C4D5543056002E0194D5543056002E06F
:10050000174D056000BF00BF144D6D6805F0F00188
:100510000909154D6B5C0568DD4045600F4D6D6840
:1005200005F4E061090A104D6B5C4568DD408560AB
:100530000A4D6D6805F46051C90A0B4D6B5C456846
:10054000DD40C560054D6D6805F44041890B074DE0
:100550006B5CC568B5FBF3F5056130BD001002406A
:1005600000127A0000093D004000002050000020E9
:1005700010B500F001F810BD0CB5002001900090FE
:100580003348006840F480303149086000BF30488B
:10059000006800F4003000900198401C0190009821
:1005A00018B90198B0F5A06FF1D12948006800F49E
:1005B000003010B10120009001E000200090009870
:1005C000012843D12348006840F010002149086009
:1005D0000846006820F0030008600846006840F004
:1005E000020008601A484068194948600846406897
:1005F00048600846406840F48060486008464068AB
:1006000020F47C1048600846406840F4E8104860D8
:100610000846006840F08070086000BF0C48006821
:1006200000F000700028F9D00948406820F003006D
:10063000074948600846406840F00200486000BF33
:100640000348406800F00C000828F9D10CBD0000F8
:100650000010024000200240042808D14FF0E021A1
:10066000096941F004014FF0E022116107E04FF009
:10067000E021096921F004014FF0E0221161704787
:1006800010B51348006840F00100114908600846A1
:100690004068104908400E494860084600680E4905
:1006A00008400B4908600846006820F48020086074
:1006B0000846406820F4FE0048604FF41F00886040
:1006C000FFF756FF4FF000600449086010BD0000BE
:1006D000001002400000FFF8FFFFF6FE08ED00E00A
:1006E00030B589B005460C4601210420FFF7B6FE5F
:1006F00001210846FFF7C2FE01210820FFF7BEFED8
:10070000C020ADF8200018208DF8230003208DF8BC
:10071000220008A91748FFF7A5FDADF80850ADF86D
:1007200004400020ADF80600ADF80A0001A9124807
:1007300000F0F0F87020ADF810000020ADF81800BF
:100740000120ADF8120004A90B4800F033F804A909
:10075000094800F07BF80821074800F0C9F801219A
:10076000054800F00BF80121034800F013F809B028
:1007700030BD0000000C01400008004021B102889B
:1007800042F00102028004E002884FF6FE731A4034
:100790000280704731B1B0F8442042F40042A0F822
:1007A000442005E0B0F84420C2F30E02A0F8442033
:1007B0007047000070B5002400220023058C4FF61E
:1007C000FE7635400584028C8388048B4FF68F7546
:1007D0002C40B51E2C400D882C43751E2A400D89D7
:1007E0002A434D882A43144DA8420BD0134DA842EA
:1007F00008D0134DA84205D0124DA84202D0124D88
:10080000A84213D14FF6F7752A404D892A434FF677
:10081000FB752A408D882A434FF6FF652B404FF623
:10082000FF552B408D892B43CD892B438380048337
:10083000CD888586028470BD002C014000340140C3
:1008400000400140004401400048014070B50024D0
:1008500000220023058C4FF6EF7635400584028C8C
:100860008388048B48F6FF752C404FF6FF452C40DB
:100870000D884FF6FF7606EA05252C434FF6DF7507
:100880002A400D8906EA05152A434D8806EA051512
:100890002A43154DA84202D0144DA8421DD14FF64F
:1008A0007F752A404D894FF6FF7606EA05152A43E3
:1008B0004FF6BF752A408D8806EA05152A434FF684
:1008C000FF352B404FF2FF752B408D8906EA8505D9
:1008D0002B43CD8906EA85052B4383800483CD888D
:1008E0000587028470BD0000002C014000340140E7
:1008F0000A460021018B4FF2FF7319404FF6FF7338
:1009000003EA0223194301837047818670470187F8
:1009100070470000002202881D4B98420ED01D4BEC
:1009200098420BD0B0F1804F08D01B4B984205D0B5
:100930001A4B984202D01A4B984204D14FF68F734B
:100940001A404B881A43174B984207D0164B9842CF
:1009500004D04FF6FF431A40CB881A4302808B889D
:1009600083850B8803850A4B98420BD0094B98422C
:1009700008D00E4B984205D00D4B984202D00D4B3B
:10098000984201D10B7A03860123838270470000CD
:10099000002C0140003401400004004000080040E9
:1009A000000C0040001000400014004000400140D6
:1009B000004401400048014070B50024002540F289
:1009C0002551294800F080F800284BD0264800F037
:1009D00037F9C4B22548007810B92548047070BDB5
:1009E000244801780078401C224A10702248445460
:1009F00000F03AF9012805D100201E4908700120B5
:100A00001E4908701B480078022817DB1948007837
:100A1000402813DA17480078801E1749085C0D2813
:100A20000CD114480078401E085C0A2806D11148F1
:100A300000781349087000200E4908700D480078AE
:100A400040280FDB0C4890F83E000D2807D10A48DB
:100A500090F83F000A2802D101200A4908700020BE
:100A60000449087000BFBAE70038014019000020AF
:100A7000180000201C000020DB0000201B000020CC
:100A80001D0000201A00002010B5002440F225515E
:100A9000064800F019F840B1044800F0D1F8C4B29B
:100AA000212C02D03F2C00D000BF10BD00440040DC
:100AB00021B1828942F40052828104E082894DF69C
:100AC000FF731A408281704770B5024600240023EC
:100AD0000025002040F66A16B14200D100BFC1F3E4
:100AE000421501F01F03012606FA03F3012D02D17E
:100AF0009689334006E0022D02D1168A334001E088
:100B0000968A33400C12012606FA04F41688344003
:100B100013B10CB1012000E0002070BDF0B5034618
:100B2000002400260025002040F66A17B94200D1B3
:100B300000BF1846C1F3421401F01F06012707FA4F
:100B400006F5012C01D10C3004E0022C01D110304B
:100B500000E014301AB107682F43076002E007680D
:100B6000AF430760F0BD00002DE9F04786B00546B1
:100B70000E460024A24600BFA1460027B08900B15E
:100B800000BF2F462C8A4CF6FF700440F0880443C7
:100B90002C82AC894EF6F3100440B08831890843AA
:100BA000718908430443AC81AC8A4FF6FF4004408E
:100BB000B0890443AC8201A8FFF770FC1F4887424C
:100BC00002D1DDF810A001E0DDF80CA0A88900F446
:100BD000004040B10AEBCA0000EB0A10316849003E
:100BE000B0FBF1F807E00AEBCA0000EB0A1031682D
:100BF0008900B0FBF1F86420B8FBF0F00401200993
:100C0000642101FB1089A88900F4004040B1322022
:100C100000EBC900B0FBF1F000F00700044308E06E
:100C2000322000EB09106421B0FBF1F000F00F005E
:100C300004432C8106B0BDE8F08700000038014075
:100C400001468888C0F30800704702E008C8121FF8
:100C500008C1002AFAD170477047002001E001C1A5
:100C6000121F002AFBD1704713480078082820DBA8
:100C70001148007808381149085C2B2819D10E4812
:100C80000078C01F085C492813D10B480078801FEA
:100C9000085C50280DD108480078401F085C4428A3
:100CA00007D105480078001F085C2C2801D10120DD
:100CB00070470020FCE700001C000020DB00002043
:100CC00000BF0748008800F040000028F9D000BFAE
:100CD0000448008800F040000028F9D07047000068
:100CE000003801400044004010B56FF00400FFF7E9
:100CF000B3FC0A4800680A49B0FBF1F009490870E2
:100D00000846007800EB4001C1EBC0104FF6FF71C0
:100D100001EAC0000449088010BD00005400002012
:100D200000127A003C0000203E00002010B50F4861
:100D300001880F48FFF7E9FD0E4801880C48FFF7CE
:100D4000E6FD4FF480510C48FFF722FB4FF40061A1
:100D50000948FFF71BFB4FF400610848FFF716FB3B
:100D60004FF480510548FFF713FB10BD38000020F9
:100D7000000800403A000020001001400008014037
:100D800010B54FF4BE710748FFF7C1FD4FF4805115
:100D90000548FFF7FBFA4FF400610348FFF7F6FA46
:100DA00010BD0000000800400010014000BF00BF5F
:100DB00000BF0024002500BFFFF796FF002140F28E
:100DC0008330FFF78DFCFFF7E1F9FFF7FDFAFFF73E
:100DD000E1FA4FF4E13000F05BF8012012490870AD
:100DE000FFF76EFF114801881148FFF78EFD11488B
:100DF00001880F48FFF78BFDFFF798FF12E02021D5
:100E00000D48FFF7BAFA044601210B48FFF7B5FA7F
:100E100005464FF400710848FFF7AFFA294620460F
:100E200000F022F8EBE70000190000203800002055
:100E3000000800403A000020000C014010B54FF4BB
:100E4000BE710748FFF761FD4FF400610548FFF7E9
:100E50009DFA4FF480510348FFF798FA10BD000047
:100E6000000800400008014070B505460C4625B951
:100E7000012C02D1FFF7E2FF04E01CB9012D01D1E2
:100E8000FFF77EFFA54201D1FFF750FF70BD0000C4
:100E900010B586B00446012144F20500FFF7EEFAD2
:100EA00001213C48FFF7DAFA4FF40070ADF8140066
:100EB00003208DF8160018208DF8170005A9364874
:100EC000FFF7D0F94FF48060ADF8140004208DF8DE
:100ED000170005A93048FFF7C5F90420ADF8140044
:100EE00018208DF8170005A92B48FFF7BBF908203B
:100EF000ADF8140004208DF8170005A92648FFF767
:100F0000B1F925208DF8000003208DF801008DF83F
:100F1000020001208DF803006846FFF767FA2620DB
:100F20008DF8000002208DF8010003208DF80200EA
:100F300001208DF803006846FFF758FA019400205D
:100F4000ADF80800ADF80A00ADF80C00ADF81000DF
:100F50000C20ADF80E0001A91048FFF705FE01A90D
:100F60000F48FFF701FE012240F225510B48FFF721
:100F7000D5FD012240F225510948FFF7CFFD01219F
:100F80000648FFF795FD01210548FFF791FD06B0E2
:100F900010BD0000010002000008014000380140BF
:100FA00000440040C40F000800000020680000005A
:100FB0004A0C00082C100008680000207005000092
:100FC0005A0C000801040401010202030403030493
:100FD00003020203040202040102020100000000F5
:100FE0000000000000000000000000000000000001
:100FF000000000000000000000000000A401B80193
:1010000000000000000000000102030401020304CC
:10101000060708090204060800A24A0400000000AE
:0C1020000000000001020304060708099C
:0400000508000131BD
:00000001FF
