:020000040800F2
:1000000048080020D50100085D06000855060008D4
:1000100059060008890400085B0C00080000000075
:10002000000000000000000000000000FD070008C4
:100030008D04000800000000E50600081109000812
:10004000EF010008EF010008EF010008EF010008D0
:10005000EF010008EF010008EF010008EF010008C0
:10006000EF010008EF010008EF010008EF010008B0
:10007000EF010008EF010008EF010008EF010008A0
:10008000EF010008EF010008EF010008EF01000890
:10009000EF010008EF010008EF010008EF01000880
:1000A000EF010008EF010008EF010008EF01000870
:1000B000EF010008EF010008EF010008EF01000860
:1000C000EF010008EF010008EF010008EF01000850
:1000D000EF0100087D0900084D0A0008EF01000843
:1000E000EF010008EF010008EF010008EF01000830
:1000F000EF010008EF010008EF010008EF01000820
:10010000EF010008EF010008EF010008EF0100080F
:10011000EF010008EF010008EF010008EF010008FF
:10012000EF010008EF010008EF010008EF010008EF
:1001300000F002F800F03FF80AA090E8000C8244BA
:100140008344AAF10107DA4501D100F034F8AFF297
:10015000090EBAE80F0013F0010F18BFFB1A43F0A5
:1001600001031847BC130000DC130000103A24BF41
:1001700078C878C1FAD8520724BF30C830C144BF0C
:1001800004680C607047000000230024002500264E
:10019000103A28BF78C1FBD8520728BF30C148BFEA
:1001A0000B607047642900F07780002070471FB50E
:1001B0001FBD10B510BD00F037F91146FFF7F7FF6E
:1001C00000F026FF00F055F903B4FFF7F2FF03BC7F
:1001D00000F045FD0948804709480047FEE7FEE773
:1001E000FEE7FEE7FEE7FEE7FEE7FEE7FEE7FEE7E7
:1001F00004480549054A064B7047000015090008E8
:10020000310100084802002048080020480400206E
:1002100048040020704700000FB4044910B503AA39
:10022000029800F0D3F810BC5DF814FB70000020B9
:100230002DE9F0410E460446002020622046E16888
:10024000884730B3252805D0D4E901219047206A9A
:10025000401CF2E7E168204600278847050018D0D7
:10026000A5F14100192802D820354FF40067324625
:10027000294620462760FFF795FF40B1012804D0AA
:10028000F61D26F007060836D8E7361DD6E72846BD
:10029000DAE7206ABDE8F0812DE9F0410646002446
:1002A00010687529314616A510D0AFF300800028DC
:1002B00002DA404213A507E031688A0701D512A58A
:1002C00002E0490704D511A5012401E0AFF3008045
:1002D00000210A2206F1240709E0B0FBF2FCB0FB82
:1002E000F2F302FB1C00303078541846491C0028F9
:1002F000F3D123462A463046BDE8F04100F00CB861
:10030000000000002D0000002B0000002000000075
:1003100070477047704770472DE9F0470D46994682
:100320009246044600F124080168880604D5E06975
:1003300021F01001216000E00120A84201DD471BEF
:1003400000E00027A1697A1902EB0900081AA061F0
:100350002078C00602D42046AFF30080002608E0D3
:10036000D4E901211AF806009047206A401C761C47
:1003700020624E45F4DB2078C0060AD52046AFF354
:10038000008006E0D4E9012130209047206A401C1B
:100390002062381EA7F10107F4DC07E0D4E901214F
:1003A00018F805009047206A401C2062281EA5F11D
:1003B0000105F3DC2046AFF300802078000602D56B
:1003C0000220BDE8F0870120FBE70000074B70B575
:1003D0000D467B4400F011F80446284600F020F852
:1003E00010B14FF0FF3070BD204670BD070C00000B
:1003F00001694A1C02610878704700B58FB0CDE9E9
:1004000001310021059105497944CDE903101146D8
:100410006846FFF70DFF0FB000BD0000E5FFFFFFCE
:10042000007B00F080007047754600F029F8AE466A
:1004300005006946534620F00700854618B020B5F0
:10044000FFF7D6FEBDE820404FF000064FF0000752
:100450004FF000084FF0000B21F00701AC46ACE86C
:10046000C009ACE8C009ACE8C009ACE8C0098D46D9
:1004700070470446AFF300802046FFF7A5FE00005A
:1004800000487047E801002000BFFEE77047000009
:1004900010B5044600F012FC012000F03FFE21469A
:1004A00006A000F009FF142000F038FE21460CA041
:1004B00000F002FF012000F031FE10BD41542B433B
:1004C000574A41503D2233333342222C22797972EC
:1004D000647869616F6B656169220D0A0000000034
:1004E00041542B43495053544152543D225443509C
:1004F000222C223139322E3136382E302E31303402
:10050000222C32303030300D0A0000002DE9F0414D
:10051000024600250026002000230024002791F831
:1005200003C00CF00F0591F803C00CF0100CBCF1E7
:10053000000F03D091F802C04CEA050591F800C005
:10054000BCF1000F31D0146800202BE04FF0010CFB
:100550000CFA00F3B1F800C00CEA03069E4220D169
:1005600083004FF00F0C0CFA03F7BC4305FA03FCB1
:100570004CEA040491F803C0BCF1280F06D14FF0F7
:10058000010C0CFA00FCC2F814C00AE091F803C098
:10059000BCF1480F05D14FF0010C0CFA00FCC2F879
:1005A00010C0401C0828D1D31460B1F800C0BCF1C1
:1005B000FF0F34DD546800202EE000F1080C4FF0EE
:1005C000010808FA0CF3B1F800C00CEA03069E42D9
:1005D00021D183004FF00F0C0CFA03F7BC4305FA4E
:1005E00003FC4CEA040491F803C0BCF1280F05D1C8
:1005F00000F1080C08FA0CF8C2F8148091F803C056
:10060000BCF1480F07D100F1080C4FF0010808FABF
:100610000CF8C2F81080401C0828CED35460BDE806
:10062000F08101617047000008B5F020ADF80000CE
:1006300003208DF8020010208DF80300694604485D
:10064000FFF764FFF0210248FFF7EBFF08BD000051
:100650000008014000BFFEE700BFFEE77047000052
:1006600070B5002100230F22C47804B3154C246810
:1006700004F4E064C4F5E064210AC1F10403CA4053
:10068000447804FA03F184781440214309010E4CA4
:100690000678A155047804F01F050124AC400578C4
:1006A0006D11AD0005F1E025C5F8004109E00478C1
:1006B00004F01F050124AC40044D0678761145F87E
:1006C000264070BD0CED00E000E400E080E100E0B9
:1006D00002490143024A1160704700000000FA0518
:1006E0000CED00E07047000029B1064AD2690243D0
:1006F000044BDA6104E0034AD2698243014BDA61B8
:10070000704700000010024029B1064A9269024376
:10071000044B9A6104E0034A92698243014B9A6157
:10072000704700000010024030B500210022002474
:1007300000232D4D6D6805F00C0121B1042905D071
:10074000082923D105E0294D056022E0274D0560E9
:100750001FE0254D6D6805F47012234D6D6805F49A
:100760008034022505EB92421CB9214D55430560AA
:100770000BE01D4D6D6805F400351DB11C4D554352
:10078000056002E0194D5543056002E0174D056014
:1007900000BF00BF144D6D6805F0F0010909154D4B
:1007A0006B5C0568DD4045600F4D6D6805F4E061E8
:1007B000090A104D6B5C4568DD4085600A4D6D6827
:1007C00005F46051C90A0B4D6B5C4568DD40C5609E
:1007D000054D6D6805F44041890B074D6B5CC5689C
:1007E000B5FBF3F5056130BD0010024000127A0040
:1007F00000093D005000002060000020704710B547
:1008000000F002F810BD00000CB50020019000902F
:100810003348006840F480303149086000BF3048F8
:10082000006800F4003000900198401C019000988E
:1008300018B90198B0F5A06FF1D12948006800F40B
:10084000003010B10120009001E0002000900098DD
:10085000012843D12348006840F010002149086076
:100860000846006820F0030008600846006840F071
:10087000020008601A484068194948600846406804
:1008800048600846406840F4806048600846406818
:1008900020F47C1048600846406840F4E810486046
:1008A0000846006840F08070086000BF0C4800688F
:1008B00000F000700028F9D00948406820F00300DB
:1008C000074948600846406840F00200486000BFA1
:1008D0000348406800F00C000828F9D10CBD000066
:1008E0000010024000200240042808D14FF0E0210F
:1008F000096941F004014FF0E022116107E04FF077
:10090000E021096921F004014FF0E02211617047F4
:100910007047000010B51348006840F0010011490D
:10092000086008464068104908400E49486008467B
:1009300000680E4908400B4908600846006820F42A
:10094000802008600846406820F4FE0048604FF4AC
:100950001F008860FFF753FF4FF0006004490860F4
:1009600010BD0000001002400000FFF8FFFFF6FE7F
:1009700008ED00E0818670470187704770B500245C
:10098000002540F22551294800F0A6F800284BD058
:10099000264800F05DF9C4B22548007810B9254812
:1009A000047070BD244801780078401C224A107001
:1009B0002248445400F056F9012805D100201E4970
:1009C000087001201E4908701B480078022817DBB8
:1009D00019480078402813DA17480078801E174914
:1009E000085C0D280CD114480078401E085C0A28C9
:1009F00006D1114800781349087000200E4908708C
:100A00000D48007840280FDB0C4890F83E000D2878
:100A100007D10A4890F83F000A2802D101200A496C
:100A2000087000200449087000BFBAE70038014090
:100A30000D0000200C00002010000020EB00002022
:100A40000F000020110000200E00002010B500242F
:100A500040F22551184800F03FF858B3164800F00E
:100A6000F7F8C4B2212C0AD11448006808B9012053
:100A700000E000201149086000F07AFC1AE03F2CE9
:100A80000AD10E48006808B9012000E000200B4997
:100A9000086000F08DFC0DE02A2C0BD1074800689F
:100AA00008B9012000E00020044908604FF4E1701B
:100AB00000F088FA10BD0000004400408881224206
:100AC00021B1828942F40052828104E082894DF68C
:100AD000FF731A408281704770B5024600240023DC
:100AE0000025002040F66A16B14200D100BFC1F3D4
:100AF000421501F01F03012606FA03F3012D02D16E
:100B00009689334006E0022D02D1168A334001E077
:100B1000968A33400C12012606FA04F416883440F3
:100B200013B10CB1012000E0002070BDF0B5034608
:100B3000002400260025002040F66A17B94200D1A3
:100B400000BF1846C1F3421401F01F06012707FA3F
:100B500006F5012C01D10C3004E0022C01D110303B
:100B600000E014301AB107682F43076002E00768FD
:100B7000AF430760F0BD00002DE9F04786B00546A1
:100B80000E460024A24600BFA1460027B08900B14E
:100B900000BF2F462C8A4CF6FF700440F0880443B7
:100BA0002C82AC894EF6F3100440B088318908439A
:100BB000718908430443AC81AC8A4FF6FF4004407E
:100BC000B0890443AC8201A8FFF7AEFD1F488742FD
:100BD00002D1DDF810A001E0DDF80CA0A88900F436
:100BE000004040B10AEBCA0000EB0A10316849002E
:100BF000B0FBF1F807E00AEBCA0000EB0A1031681D
:100C00008900B0FBF1F86420B8FBF0F00401200982
:100C1000642101FB1089A88900F4004040B1322012
:100C200000EBC900B0FBF1F000F00700044308E05E
:100C3000322000EB09106421B0FBF1F000F00F004E
:100C400004432C8106B0BDE8F08700000038014065
:100C500001468888C0F30800704700BFFEE70146E0
:100C600000BF704713480078082820DB114800783F
:100C700008381149085C2B2819D10E480078C01F8C
:100C8000085C492813D10B480078801F085C502865
:100C90000DD108480078401F085C442807D105485A
:100CA0000078001F085C2C2801D10120704700202B
:100CB000FCE7000010000020EB00002000BF074808
:100CC000008800F040000028F9D000BF04480088E8
:100CD00000F040000028F9D07047000000380140C3
:100CE0000044004030B5864B1B789B11854C237027
:100CF000834B5B78824C247804F03F0443EA04235E
:100D0000814C23807E4B9B78DB111B027F4C238020
:100D10007B4B9B789B111B026380794B9B785B110B
:100D20001B027B4C2380764B9B781B111B0263803C
:100D300002220321012038E0714B9B5C0B414FF6EE
:100D4000FF7404EA0323734C24F820304B1ED9B2FD
:100D50006B4B9B5C0B414FF6FF7404EA03236D4C15
:100D600004EB800463804B1ED9B2654B9B5C0B4146
:100D70004FF6FF7404EA0323674C24F820304B1E1F
:100D8000D9B25F4B9B5C0B414FF6FF7404EA03231F
:100D9000614C04EB800463804B1ED9B2002902DA57
:100DA0000721531CDAB2431CD8B20528C4DD574BC7
:100DB0001B88534C64792343544C238023465B881F
:100DC0004F4CA4792343514C6380514B1B884C4CAE
:100DD000E47923434E4C238023465B88484C247A95
:100DE00023434B4C6380464B5B7A9B104B4C2370E8
:100DF0004B4B5B78424C647A04F003042343484C29
:100E0000637023469B783E4CA47A43EA9413444C87
:100E1000A3702346DB783A4CA47AC4F3011423432D
:100E20003F4CE37023461B79354CA47AC4F381040C
:100E300023433B4C237123465B79314CA47A04F065
:100E400003042343364C6371012039E0314B33F8FE
:100E50002030441E0B2505EB8404294D2C5D2343D3
:100E60002C4C24F82030234603EB80035B88441E7F
:100E70000C2505EB8404224D2C5D2343254C04EB0B
:100E800080046380244B33F82030441E0D2505EB8D
:100E900084041B4D2C5D23431F4C24F82030234633
:100EA00003EB80035B88441E0E2505EB8404144D80
:100EB0002C5D2343184C04EB80046380431CD8B2A0
:100EC0000528C3DD0E4BDB7F164C23700C4B93F8CB
:100ED0002030154C23700A4B93F82230084C94F8BC
:100EE000214043EA0423114C2380054B93F824301E
:100EF000034C94F8234043EA04230D4C238030BD77
:100F000082000020120000201400002016000020A3
:100F10001A000020B8010020D00100201E0000208F
:100F20001F000020250000202600002028000020AF
:100F30002A00002010B56FF00400FFF7D5FC0A4826
:100F400000680A49B0FBF1F00949087008460078CA
:100F500000EB4001C1EBC0104FF6FF7101EAC00089
:100F60000449088010BD00002C00002000127A0007
:100F70004C0000204E0000200146114A12884A43CE
:100F80004FF0E0235A6100229A611A46126942F03A
:100F900001021A6100BF4FF0E022106900F0010267
:100FA0001AB100F48032002AF5D04FF0E022126925
:100FB00022F001024FF0E0231A6100229A6170478B
:100FC0004E00002010B504460221204600F0A2F990
:100FD00042F21070FFF7D0FF10BD000000BF054ABD
:100FE000128802F04002002AF9D0C2B2014B1B1D48
:100FF0001A807047003801400146002200BF1046A9
:10100000531C9AB2085C0028F9D1501E80B2704778
:1010100000BF00BF0024FFF78DFF4FF4A060FFF773
:1010200057FB4FF4E13000F0F1F9FFF7FDFA012032
:10103000FFF72EFA012026490870FFF73FFE45E032
:101040002448007870B1234800782349088000BF05
:101050002148001F008800F040000028F8D0002040
:101060001C4908701D48007830B102211CA000F016
:1010700023F90020194908701D48007810B100209C
:101080001B4908701B48007800B3002019490870FC
:10109000022119A000F010F9002411E01D48005DA4
:1010A0001D4908550846005D0B49088000BF0A48E5
:1010B000001F008800F040000028F8D0601CC4B277
:1010C000402CEBDBFFF70EFE00F036F8B8E700002F
:1010D0000D0000200C000020044400400F00002000
:1010E000426567696E6E696E672E2E2E0D0A0000CE
:1010F000110000200E0000200D0A5265636569761C
:1011000065207375636365737366756C6C792021F4
:10111000210D0A00EB0000208200002070B504467B
:10112000002505E04FF47A70FFF726FF681CC5B272
:10113000A542F7DB70BD000000B502211AA000F047
:10114000BBF802211C48007800F06EF802211BA0B9
:1011500000F0B2F802211D48008800F065F8022175
:101160001BA000F0A9F81F490888022100F05CF8D4
:1011700002211DA000F0A0F81A494888022100F0C1
:1011800053F802211DA000F097F821490888022198
:1011900000F04AF802211FA000F08EF81C49488890
:1011A000022100F041F800BD0D0A67616D655374BE
:1011B000617475733A200000120000200D0A6E6FF2
:1011C00077526F756E643A20000000001400002012
:1011D0000D0A6D79506F736974696F6E2E783A20BD
:1011E00000000000160000200D0A6D79506F736931
:1011F00074696F6E2E793A20000000000D0A6F703E
:10120000506F736974696F6E2E783A200000000089
:101210001A0000200D0A6F70506F736974696F6E49
:101220002E793A200000000070B50A460023002104
:1012300000241E4D6C700EE00A2490FBF4F504FBB4
:101240001504E5B25C1CE4B22346184E35550A2459
:1012500090FBF4F4A0B20028EED103B901231946A3
:1012600020E0012A0DD1114C645C3034104D2C80EB
:1012700000BF0F4C241F248804F04004002CF8D039
:101280000EE0022A0CD1094C645C3034094D2C80EC
:1012900000BF084C241F248804F04004002CF8D020
:1012A0004C1EE1B20129DCDA70BD0000780000209C
:1012B0000438014004440040F0B505460E46284677
:1012C000FFF79AFE0746002400BF1CE0012E0BD159
:1012D000285D0E49088000BF0C48001F008800F000
:1012E00040000028F8D00CE0022E0AD1285D084901
:1012F000088000BF0648001F008800F0400000285A
:10130000F8D0601C84B2BC42E0DBF0BD0438014080
:101310000444004070B504460D46134800688442FA
:1013200002DA1148046805E010480068844201DDD3
:101330000E4804682DB9A1B24FF08040FFF71AFBA8
:1013400010E0012D04D1A1B2A807FFF715FB09E0B9
:10135000A1B24FF08040FFF70DFBA1B24FF08040EB
:10136000FFF70AFB70BD0000400000204400002091
:1013700010B5022140F28330FFF7CCFF05A0FEF745
:101380004BFF42F21070FFF7F7FD06A0FEF744FF97
:1013900010BD00000D0A73746F70706564210D0A32
:1013A000000000000D0A7374617274210D0A0000C0
:1013B00070B5012600251048046819E06D1CC8208E
:1013C000FFF7DAFD0EB1143400E0143C0B4800685E
:1013D000844200DB002608480068844200DC0126C5
:1013E00002212046FFF796FF214605A0FEF714FFD5
:1013F000642DE3DB70BD00004000002044000020AD
:101400000D0A70776D3A25640D0A000010B586B09C
:101410000446012144F20500FFF776F901213C481A
:10142000FFF762F94FF40070ADF8140003208DF857
:10143000160018208DF8170005A93648FFF766F842
:101440004FF48060ADF8140004208DF8170005A952
:101450003048FFF75BF80420ADF8140018208DF831
:10146000170005A92B48FFF751F80820ADF8140024
:1014700004208DF8170005A92648FFF747F8252016
:101480008DF8000003208DF801008DF80200012086
:101490008DF803006846FFF7E3F826208DF800007A
:1014A00002208DF8010003208DF8020001208DF844
:1014B00003006846FFF7D4F801940020ADF8080057
:1014C000ADF80A00ADF80C00ADF810000C20ADF836
:1014D0000E0001A91048FFF74FFB01A90F48FFF7C5
:1014E0004BFB012240F225510B48FFF71FFB012265
:1014F00040F225510948FFF719FB01210648FFF783
:10150000DFFA01210548FFF7DBFA06B010BD000045
:101510000100020000080140003801400044004082
:101520004015000800000020780000006C01000851
:10153000B815000878000020D007000088010008D6
:10154000FA0000008303000000000000000000001B
:10155000000000000000000000000000000000008B
:1015600000000000000000000000000000A24A048B
:101570000000000000000000010203040607080943
:10158000FA000000830300000000000000000000DB
:101590000000000001020304010203040607080919
:1015A00002040608FA0000008303000000000000A7
:0815B000000000000000000033
:04000005080001D519
:00000001FF
