:020000040800F2
:1000000040080020DD01000805070008FD06000883
:100010000107000811050008130D0008000000008A
:10002000000000000000000000000000A50800081B
:1000300015050008000000008D070008B909000838
:10004000F7010008F7010008F7010008F7010008B0
:10005000F7010008F7010008F7010008F7010008A0
:10006000F7010008F7010008F7010008F701000890
:10007000F7010008F7010008F7010008F701000880
:10008000F7010008F7010008F7010008F701000870
:10009000F7010008F7010008F7010008F701000860
:1000A000F7010008F7010008F7010008F701000850
:1000B000F7010008F7010008F7010008F701000840
:1000C000F7010008F7010008F7010008F701000830
:1000D000F7010008250A0008990A0008F70100083E
:1000E000F7010008F7010008F7010008F701000810
:1000F000F7010008F7010008F7010008F701000800
:10010000F7010008F7010008F7010008F7010008EF
:10011000F7010008F7010008F7010008F7010008DF
:10012000F7010008F7010008F7010008F7010008CF
:1001300000F002F800F042F80AA090E8000C8244B7
:100140008344AAF10107DA4501D100F037F8AFF294
:10015000090EBAE80F0013F0010F18BFFB1A43F0A5
:10016000010318474C1000006C100000103A24BF27
:1001700078C878C1FAD8520724BF30C830C144BF0C
:1001800004680C607047000000230024002500264E
:10019000103A28BF78C1FBD8520728BF30C148BFEA
:1001A0000B607047642900F0A580632900F0458149
:1001B000002070471FB51FBD10B510BD00F078F9C5
:1001C0001146FFF7F7FF00F043FE00F096F903B485
:1001D000FFF7F2FF03BC00F09EFD000009488047D6
:1001E00009480047FEE7FEE7FEE7FEE7FEE7FEE719
:1001F000FEE7FEE7FEE7FEE704480549054A064B31
:1002000070470000BD0900083101000840020020CD
:1002100040080020400400204004002070470000F7
:100220000FB4044910B503AA029800F013F910BCEA
:100230005DF814FB700000202DE9F0410E460446E5
:10024000002020622046E168884730B3252805D089
:10025000D4E901219047206A401CF2E7E16820467A
:1002600000278847050018D0A5F14100192802D8B9
:1002700020354FF400673246294620462760FFF7B5
:1002800091FF40B1012804D0F61D26F0070608367C
:10029000D8E7361DD6E72846DAE7206ABDE8F081C0
:1002A00070B50C460546012A05D02878800600D591
:1002B000EA69002302E0012305E05B1C934202D2BD
:1002C000E05C0028F9D1A869E618C01AA861286A7C
:1002D000184428622846AFF3008004E0D5E90121E4
:1002E00014F8010B9047B442F8D32846AFF30080CE
:1002F00070BD00002DE9F041064600241068752904
:10030000314616A510D0AFF30080002802DA404233
:1003100013A507E031688A0701D512A502E0490755
:1003200004D511A5012401E0AFF3008000210A22C9
:1003300006F1240709E0B0FBF2FCB0FBF2F302FB8C
:100340001C00303078541846491C0028F3D123464D
:100350002A463046BDE8F04100F00CB8000000002D
:100360002D0000002B0000002000000070477047A7
:10037000704770472DE9F0470D469946924604466E
:1003800000F124080168880604D5E06921F0100115
:10039000216000E00120A84201DD471B00E00027AA
:1003A000A1697A1902EB0900081AA0612078C00639
:1003B00002D42046AFF30080002608E0D4E90121F2
:1003C0001AF806009047206A401C761C20624E45B1
:1003D000F4DB2078C0060AD52046AFF3008006E0A3
:1003E000D4E9012130209047206A401C2062381E49
:1003F000A7F10107F4DC07E0D4E9012118F80500B2
:100400009047206A401C2062281EA5F10105F3DCFC
:100410002046AFF300802078000602D50220BDE818
:10042000F0870120FBE710B5436913B1AFF30080FB
:1004300001E0FFF735FF012010BD127800F1240123
:100440000A7000224A700122EDE711684FF0FF3276
:10045000E9E70000074B70B50D467B4400F011F84A
:100460000446284600F020F810B14FF0FF3070BD70
:10047000204670BDBF09000001694A1C026108786E
:10048000704700B58FB0CDE90131002105910549D4
:100490007944CDE9031011466846FFF7CDFE0FB051
:1004A00000BD0000E5FFFFFF007B00F0800070470B
:1004B000754600F029F8AE4605006946534620F01F
:1004C0000700854618B020B5FFF796FEBDE820402E
:1004D0004FF000064FF000074FF000084FF0000B00
:1004E00021F00701AC46ACE8C009ACE8C009ACE8B3
:1004F000C009ACE8C0098D4670470446AFF30080E0
:100500002046FFF764FE000000487047E00100202D
:1005100000BFFEE77047000010B5044600BF0F485B
:10052000008800F040000028F9D000BF0C48008887
:1005300000F040000028F9D0012000F0F7FC21462F
:1005400008A000F001FD142000F0F0FC21460EA0F0
:1005500000F0FAFC012000F0E9FC10BD0038014079
:100560000044004041542B43574A41503D2233330D
:100570003342222C22797972647869616F6B6561EC
:1005800069220D0A0000000041542B434950535486
:100590004152543D22544350222C223139322E31C3
:1005A00036382E302E313034222C32303030300D6F
:1005B0000A0000002DE9F041024600250026002037
:1005C00000230024002791F803C00CF00F0591F8D8
:1005D00003C00CF0100CBCF1000F03D091F802C066
:1005E0004CEA050591F800C0BCF1000F31D0146849
:1005F00000202BE04FF0010C0CFA00F3B1F800C022
:100600000CEA03069E4220D183004FF00F0C0CFA37
:1006100003F7BC4305FA03FC4CEA040491F803C059
:10062000BCF1280F06D14FF0010C0CFA00FCC2F807
:1006300014C00AE091F803C0BCF1480F05D14FF097
:10064000010C0CFA00FCC2F810C0401C0828D1D3E1
:100650001460B1F800C0BCF1FF0F34DD5468002015
:100660002EE000F1080C4FF0010808FA0CF3B1F885
:1006700000C00CEA03069E4221D183004FF00F0C0C
:100680000CFA03F7BC4305FA03FC4CEA040491F8A6
:1006900003C0BCF1280F05D100F1080C08FA0CF8D2
:1006A000C2F8148091F803C0BCF1480F07D100F1E3
:1006B000080C4FF0010808FA0CF8C2F81080401C32
:1006C0000828CED35460BDE8F08101617047000076
:1006D00008B5F020ADF8000003208DF802001020CE
:1006E0008DF8030069460448FFF764FFF0210248D3
:1006F000FFF7EBFF08BD00000008014000BFFEE768
:1007000000BFFEE77047000070B5002100230F22F4
:10071000C47804B3154C246804F4E064C4F5E064C0
:10072000210AC1F10403CA40447804FA03F1847831
:100730001440214309010E4C0678A155047804F0B9
:100740001F050124AC4005786D11AD0005F1E025D1
:10075000C5F8004109E0047804F01F050124AC400D
:10076000044D0678761145F8264070BD0CED00E08A
:1007700000E400E080E100E002490143024A116028
:10078000704700000000FA050CED00E07047000023
:1007900029B1064AD2690243044BDA6104E0034AF4
:1007A000D2698243014BDA617047000000100240B9
:1007B00029B1064A92690243044B9A6104E0034A54
:1007C00092698243014B9A61704700000010024019
:1007D00030B500210022002400232D4D6D6805F066
:1007E0000C0121B1042905D0082923D105E0294DA8
:1007F000056022E0274D05601FE0254D6D6805F47A
:100800007012234D6D6805F48034022505EB924289
:100810001CB9214D554305600BE01D4D6D6805F475
:1008200000351DB11C4D5543056002E0194D55437F
:10083000056002E0174D056000BF00BF144D6D68F4
:1008400005F0F0010909154D6B5C0568DD40456058
:100850000F4D6D6805F4E061090A104D6B5C456849
:10086000DD4085600A4D6D6805F46051C90A0B4D85
:100870006B5C4568DD40C560054D6D6805F4404121
:10088000890B074D6B5CC568B5FBF3F5056130BDA1
:100890000010024000127A0000093D0050000020C4
:1008A00060000020704710B500F002F810BD000095
:1008B0000CB50020019000903348006840F480306F
:1008C0003149086000BF3048006800F400300090F3
:1008D0000198401C0190009818B90198B0F5A06FDC
:1008E000F1D12948006800F4003010B101200090D7
:1008F00001E0002000900098012843D123480068BF
:1009000040F01000214908600846006820F003000C
:1009100008600846006840F0020008601A48406815
:10092000194948600846406848600846406840F4F5
:10093000806048600846406820F47C1048600846A3
:10094000406840F4E81048600846006840F0807055
:10095000086000BF0C48006800F000700028F9D063
:100960000948406820F0030007494860084640688D
:1009700040F00200486000BF0348406800F00C00EF
:100980000828F9D10CBD00000010024000200240F0
:10099000042808D14FF0E021096941F004014FF02B
:1009A000E022116107E04FF0E021096921F0040124
:1009B0004FF0E022116170477047000010B51348F6
:1009C000006840F00100114908600846406810497D
:1009D00008400E494860084600680E4908400B4927
:1009E00008600846006820F48020086008464068D7
:1009F00020F4FE0048604FF41F008860FFF753FFAB
:100A00004FF000600449086010BD00000010024073
:100A10000000FFF8FFFFF6FE08ED00E0818670475A
:100A20000187704710B5002440F22551184800F0A6
:100A3000AFF858B3164800F067F9C4B2212C0AD1B8
:100A40001448006808B9012000E00020114908603E
:100A500000F0D6FA1AE03F2C0AD10E48006808B917
:100A6000012000E000200B49086000F0E9FA0DE0E9
:100A70002A2C0BD10748006808B9012000E00020AB
:100A8000044908604FF4E17000F0BCF910BD0000AB
:100A9000003801408881224270B50024002540F2D0
:100AA00025512A4800F074F800284DD0274800F05E
:100AB0002BF9C4B22648007820B9214625A0FFF7BB
:100AC000AFFB70BD244801780078401C224A1070AA
:100AD0002248445400F022F9012805D100201E4983
:100AE00008701FA0FFF79CFB1B480078022817DB4B
:100AF00019480078402813DA17480078801E1749F3
:100B0000085C0D280CD114480078401E085C0A28A7
:100B100006D1114800781649087000200E49087067
:100B20000D48007840280FDB0C4890F83E000D2857
:100B300007D10A4890F83F000A2802D101200D4948
:100B4000087000200449087000BFBAE70044004064
:100B50000C000020256300000E000020E1000020B2
:100B60000A426567696E6E696E672E2E0A00000084
:100B70000F0000200D00002021B1828942F40052B4
:100B8000828104E082894DF6FF731A4082817047AA
:100B900070B50246002400230025002040F66A16A6
:100BA000B14200D100BFC1F3421501F01F0301267D
:100BB00006FA03F3012D02D19689334006E0022D97
:100BC00002D1168A334001E0968A33400C12012686
:100BD00006FA04F41688344013B10CB1012000E089
:100BE000002070BDF0B5034600240026002500203B
:100BF00040F66A17B94200D100BF1846C1F342144B
:100C000001F01F06012707FA06F5012C01D10C306F
:100C100004E0022C01D1103000E014301AB1076852
:100C20002F43076002E00768AF430760F0BD000094
:100C30002DE9F04786B005460E460024A24600BFC7
:100C4000A1460027B08900B100BF2F462C8A4CF680
:100C5000FF700440F08804432C82AC894EF6F310F8
:100C60000440B08831890843718908430443AC814A
:100C7000AC8A4FF6FF400440B0890443AC8201A81F
:100C8000FFF7A6FD1F48874202D1DDF810A001E062
:100C9000DDF80CA0A88900F4004040B10AEBCA00BE
:100CA00000EB0A1031684900B0FBF1F807E00AEBED
:100CB000CA0000EB0A1031688900B0FBF1F864202B
:100CC000B8FBF0F004012009642101FB1089A88918
:100CD00000F4004040B1322000EBC900B0FBF1F05D
:100CE00000F00700044308E0322000EB0910642103
:100CF000B0FBF1F000F00F0004432C8106B0BDE81A
:100D0000F08700000038014001468888C0F30800E1
:100D1000704700BFFEE7014600BF704713480078E8
:100D2000082820DB1148007808381149085C2B2876
:100D300019D10E480078C01F085C492813D10B4810
:100D40000078801F085C50280DD108480078401FAB
:100D5000085C442807D105480078001F085C2C284F
:100D600001D1012070470020FCE700000E000020A8
:100D7000E100002010B56FF00400FFF709FE0A48FB
:100D800000680A49B0FBF1F009490870084600788C
:100D900000EB4001C1EBC0104FF6FF7101EAC0004B
:100DA0000449088010BD00002C00002000127A00C9
:100DB0004C0000204E0000200146114A12884A4390
:100DC0004FF0E0235A6100229A611A46126942F0FC
:100DD00001021A6100BF4FF0E022106900F0010229
:100DE0001AB100F48032002AF5D04FF0E0221269E7
:100DF00022F001024FF0E0231A6100229A6170474D
:100E00004E00002010B504460221204600F0CAF82A
:100E100042F21070FFF7D0FF10BD000000BF054A7E
:100E2000128802F04002002AF9D0C2B2014B1B1D09
:100E30001A807047003801400146002200BF10466A
:100E4000531C9AB2085C0028F9D1501E80B270473A
:100E500000BF00BF0024FFF78DFF4FF4A060FFF735
:100E60008BFC4FF4E13000F019F9FFF731FC022060
:100E7000FFF752FB01201D49087035E01C4800783F
:100E8000F0B101211BA000F05FF800240DE01B4829
:100E9000005D1B49088000BF1948001F008800F052
:100EA00040000028F8D0601CC4B211480078844289
:100EB000EDDB012113A000F047F800200C49087079
:100EC0001148007880B100200F49087001210FA05F
:100ED00000F03AF8002405E00848005D1249085582
:100EE000601CC4B2402CF7DBC8E700000C000020F7
:100EF0000F0000206F75747075743A00E1000020D7
:100F0000043801400D0A00000D0000200D0A526552
:100F10006365697665207375636365737366756C65
:100F20006C792021210D0A007800002070B504465C
:100F3000002505E04FF47A70FFF73EFF681CC5B24C
:100F4000A542F7DB70BD0000F0B505460E46284609
:100F5000FFF772FF0746002400BF1CE0012E0BD1F3
:100F6000285D0E49088000BF0C48001F008800F073
:100F700040000028F8D00CE0022E0AD1285D084974
:100F8000088000BF0648001F008800F040000028CD
:100F9000F8D0601C84B2BC42E0DBF0BD04380140F4
:100FA0000444004070B504460D461348006884426E
:100FB00002DA1148046805E010480068844201DD47
:100FC0000E4804682DB9A1B24FF08040FFF726FD0E
:100FD00010E0012D04D1A1B2A807FFF721FD09E01F
:100FE000A1B24FF08040FFF719FDA1B24FF0804051
:100FF000FFF716FD70BD00004000002044000020F7
:1010000010B5022140F28330FFF7CCFF05A0FFF7B7
:1010100007F942F21070FFF7CFFE06A0FFF700F9C4
:1010200010BD00000D0A73746F70706564210D0AA5
:10103000000000000D0A7374617274210D0A000033
:1010400070B5012600251048046819E06D1CC82001
:10105000FFF7B2FE0EB1143400E0143C0B480068F8
:10106000844200DB002608480068844200DC012638
:1010700002212046FFF796FF214605A0FFF7D0F892
:10108000642DE3DB70BD0000400000204400002020
:101090000D0A70776D3A25640D0A000010B586B010
:1010A0000446012144F20500FFF782FB01213C4880
:1010B000FFF76EFB4FF40070ADF8140003208DF8BD
:1010C000160018208DF8170005A93648FFF772FAA8
:1010D0004FF48060ADF8140004208DF8170005A9C6
:1010E0003048FFF767FA0420ADF8140018208DF897
:1010F000170005A92B48FFF75DFA0820ADF814008A
:1011000004208DF8170005A92648FFF753FA25207B
:101110008DF8000003208DF801008DF802000120F9
:101120008DF803006846FFF7EFFA26208DF80000DF
:1011300002208DF8010003208DF8020001208DF8B7
:1011400003006846FFF7E0FA01940020ADF80800BC
:10115000ADF80A00ADF80C00ADF810000C20ADF8A9
:101160000E0001A91048FFF763FD01A90F48FFF722
:101170005FFD012240F225510B48FFF733FD0122AC
:1011800040F225510948FFF72DFD01210648FFF7E0
:10119000F3FC01210548FFF7EFFC06B010BD00008D
:1011A00001000200000801400038014000440040F6
:1011B000D011000800000020780000006C01000839
:1011C0004812000878000020C807000088010008C5
:1011D000FA0000008303000000000000000000008F
:1011E00000000000000000000000000000000000FF
:1011F00000000000000000000000000000A24A04FF
:1012000000000000000000000102030406070809B6
:10121000FA0000008303000000000000000000004E
:10122000000000000102030401020304060708098C
:1012300002040608FA00000083030000000000001A
:081240000000000000000000A6
:04000005080001DD11
:00000001FF
