:020000040800F2
:10000000B0060020DD0100081908000811080008EA
:1000100015080008DD050008A70D00080000000015
:10002000000000000000000000000000B909000806
:10003000E105000800000000A1080008CD0A000842
:10004000F7010008F7010008F7010008F7010008B0
:10005000F7010008F7010008F7010008F7010008A0
:10006000F7010008F7010008F7010008F701000890
:10007000F7010008F7010008F7010008F701000880
:10008000F7010008F7010008F7010008F701000870
:10009000F7010008F7010008F7010008F701000860
:1000A000F7010008F7010008F7010008F701000850
:1000B000F7010008F7010008F7010008F701000840
:1000C000F7010008F7010008F7010008F701000830
:1000D000F7010008390B0008CD0B0008F7010008F4
:1000E000F7010008F7010008F7010008F701000810
:1000F000F7010008F7010008F7010008F701000800
:10010000F7010008F7010008F7010008F7010008EF
:10011000F7010008F7010008F7010008F7010008DF
:10012000F7010008F7010008F7010008F7010008CF
:1001300000F002F800F042F80AA090E8000C8244B7
:100140008344AAF10107DA4501D100F037F8AFF294
:10015000090EBAE80F0013F0010F18BFFB1A43F0A5
:10016000010318473810000058100000103A24BF4F
:1001700078C878C1FAD8520724BF30C830C144BF0C
:1001800004680C607047000000230024002500264E
:10019000103A28BF78C1FBD8520728BF30C148BFEA
:1001A0000B607047642900F06F80782900F0A88008
:1001B000002070471FB51FBD10B510BD00F0DEF95F
:1001C0001146FFF7F7FF00F069FE00F0FCF903B4F9
:1001D000FFF7F2FF03BC00F0EFFD00000948804785
:1001E00009480047FEE7FEE7FEE7FEE7FEE7FEE719
:1001F000FEE7FEE7FEE7FEE704480549054A064B31
:1002000070470000D10A000831010008B00000204A
:10021000B0060020B0020020B002002070470000AD
:100220000FB4044910B503AA029800F079F910BC84
:100230005DF814FB4400002070B504468569006831
:10024000C10601D5302600E02026C00707D070BDCA
:10025000D4E9012130469047206A401C20626D1E7F
:10026000F6D570BD70B5044685690078C00707D122
:1002700070BDD4E9012120209047206A401C2062F3
:100280006D1EF6D570BD00002DE9F0410646002434
:1002900010687529314616A510D0AFF300800028EC
:1002A00002DA404213A507E031688A0701D512A59A
:1002B00002E0490704D511A5012401E0AFF3008055
:1002C00000210A2206F1240709E0B0FBF2FCB0FB92
:1002D000F2F302FB1C00303078541846491C002809
:1002E000F3D123462A463046BDE8F04100F0BFB8BE
:1002F000000000002D0000002B0000002000000086
:1003000070B504460D4621461068AFF30080218881
:10031000090502D50F4A7A4402E00E4A7A440E32A9
:10032000002104F1240305E000F00F060009965DAA
:100330005E54491C0028F7D120780023000704D51B
:10034000702D02D009B1022311322046BDE8704061
:1003500000F08DB85A0E00002DE9F0474FF0000A6A
:1003600089460446C0F820A02046E1688847002856
:1003700076D0252806D0D4E901219047206A401C78
:100380002062F1E7E168204600258847C4F81CA0F8
:1003900006460027C4F818A02A2E09D0304600F0DF
:1003A00004FD38B304EB8708303EC8F8186019E044
:1003B00059F8041B204604EB87029161E1688847E5
:1003C000012F064618D1E069002820DA25F0200523
:1003D0001DE0D8F8180000EB800006EB4000303834
:1003E000C8F818002046E1688847064600F0DDFCA2
:1003F0000028EED1012F0AD02E2E08D12046E16828
:1004000088477F1C0646022F45F02005C4DBA06903
:10041000002803DA404245F00105A061E80701D059
:1004200025F01005B6B1A6F14100192802D82036F2
:1004300045F400654A463146204625604D46FFF7A3
:10044000B1FE58B1012806D0ED1D25F0070000F1DE
:10045000080989E704E005F1040985E730468AE7E1
:10046000206ABDE8F08770477047704770472DE9F4
:10047000F0470D4699469246044600F1240801686B
:10048000880604D5E06921F01001216000E0012018
:10049000A84201DD471B00E00027A1697A1902EBA1
:1004A0000900081AA0612078C00602D42046FFF790
:1004B000C3FE002608E0D4E901211AF8060090479F
:1004C000206A401C761C20624E45F4DB2078C00672
:1004D0000AD52046FFF7B0FE06E0D4E9012130201E
:1004E0009047206A401C2062381EA7F10107F4DC07
:1004F00007E0D4E9012118F805009047206A401C64
:100500002062281EA5F10105F3DC2046FFF7AAFEB4
:100510002078000602D50220BDE8F0870120FBE725
:10052000074B70B50D467B4400F011F80446284691
:1005300000F020F810B14FF0FF3070BD204670BDC4
:100540003F09000001694A1C02610878704700B544
:100550008FB0CDE901310021059105497944CDE9FC
:10056000031011466846FFF7F7FE0FB000BD00000C
:10057000E5FFFFFF007B00F080007047754600F04C
:1005800029F8AE4605006946534620F00700854627
:1005900018B020B5FFF730FEBDE820404FF0000650
:1005A0004FF000074FF000084FF0000B21F007015B
:1005B000AC46ACE8C009ACE8C009ACE8C009ACE89E
:1005C000C0098D4670470446AFF300802046FFF710
:1005D000FEFD0000004870474C00002000BFFEE711
:1005E0007047000010B5044600BF1848008800F0AE
:1005F00040000028F9D000BF1548008800F04000F6
:100600000028F9D0214613A000F080FC012000F062
:100610006FFC214611A000F079FC022000F068FC7C
:10062000214612A000F072FC032000F061FC21467C
:1006300011A000F06BFC032000F05AFC214617A02B
:1006400000F064FC012000F053FC10BD00380140B4
:100650000044004041540D0A0000000041542B4367
:10066000574D4F44453D330D0A00000041542B5275
:1006700053540D0A0000000041542B43574A415087
:100680003D2233333342222C2279797264786961B6
:100690006F6B656169220D0A0000000041542B4315
:1006A000495053544152543D22544350222C22313C
:1006B00039322E3136382E312E313034222C323030
:1006C0003030300D0A0000002DE9F04102460025CF
:1006D0000026002000230024002791F803C00CF01E
:1006E0000F0591F803C00CF0100CBCF1000F03D003
:1006F00091F802C04CEA050591F800C0BCF1000F6A
:1007000031D0146800202BE04FF0010C0CFA00F3FC
:10071000B1F800C00CEA03069E4220D183004FF0DE
:100720000F0C0CFA03F7BC4305FA03FC4CEA040473
:1007300091F803C0BCF1280F06D14FF0010C0CFA60
:1007400000FCC2F814C00AE091F803C0BCF1480FE5
:1007500005D14FF0010C0CFA00FCC2F810C0401C8F
:100760000828D1D31460B1F800C0BCF1FF0F34DD0C
:10077000546800202EE000F1080C4FF0010808FA40
:100780000CF3B1F800C00CEA03069E4221D18300AD
:100790004FF00F0C0CFA03F7BC4305FA03FC4CEACC
:1007A000040491F803C0BCF1280F05D100F1080C36
:1007B00008FA0CF8C2F8148091F803C0BCF1480F95
:1007C00007D100F1080C4FF0010808FA0CF8C2F844
:1007D0001080401C0828CED35460BDE8F081016130
:1007E0007047000008B57020ADF8000003208DF8B8
:1007F000020010208DF8030069460448FFF764FFEB
:1008000070210248FFF7EBFF08BD0000000801401F
:1008100000BFFEE700BFFEE77047000070B5002193
:1008200000230F22C47804B3154C246804F4E06458
:10083000C4F5E064210AC1F10403CA40447804FA13
:1008400003F184781440214309010E4C0678A15528
:10085000047804F01F050124AC4005786D11AD004B
:1008600005F1E025C5F8004109E0047804F01F0512
:100870000124AC40044D0678761145F8264070BD41
:100880000CED00E000E400E080E100E002490143FB
:10089000024A1160704700000000FA050CED00E00C
:1008A0007047000029B1064AD2690243044BDA615D
:1008B00004E0034AD2698243014BDA6170470000C9
:1008C0000010024029B1064A92690243044B9A6122
:1008D00004E0034A92698243014B9A617047000029
:1008E0000010024030B500210022002400232D4DCD
:1008F0006D6805F00C0121B1042905D0082923D128
:1009000005E0294D056022E0274D05601FE0254DDB
:100910006D6805F47012234D6D6805F4803402256E
:1009200005EB92421CB9214D554305600BE01D4D6E
:100930006D6805F400351DB11C4D5543056002E09E
:10094000194D5543056002E0174D056000BF00BF1B
:10095000144D6D6805F0F0010909154D6B5C0568D3
:10096000DD4045600F4D6D6805F4E061090A104DEA
:100970006B5C4568DD4085600A4D6D6805F460512B
:10098000C90A0B4D6B5C4568DD40C560054D6D685F
:1009900005F44041890B074D6B5CC568B5FBF3F569
:1009A000056130BD0010024000127A0000093D00D0
:1009B0002400002034000020704710B500F002F839
:1009C00010BD00000CB50020019000903348006875
:1009D00040F480303149086000BF3048006800F4BE
:1009E000003000900198401C0190009818B90198BF
:1009F000B0F5A06FF1D12948006800F4003010B1C3
:100A00000120009001E0002000900098012843D1CF
:100A10002348006840F0100021490860084600683B
:100A200020F0030008600846006840F002000860FB
:100A30001A484068194948600846406848600846B6
:100A4000406840F4806048600846406820F47C10AC
:100A500048600846406840F4E8104860084600686E
:100A600040F08070086000BF0C48006800F0007023
:100A70000028F9D00948406820F003000749486081
:100A80000846406840F00200486000BF03484068E4
:100A900000F00C000828F9D10CBD00000010024045
:100AA00000200240042808D14FF0E021096941F0FC
:100AB00004014FF0E022116107E04FF0E0210969E5
:100AC00021F004014FF0E0221161704770470000EF
:100AD00010B51348006840F001001149086008464D
:100AE0004068104908400E494860084600680E49B1
:100AF00008400B4908600846006820F48020086020
:100B00000846406820F4FE0048604FF41F008860EB
:100B1000FFF753FF4FF000600449086010BD00006C
:100B2000001002400000FFF8FFFFF6FE08ED00E0B5
:100B3000818670470187704710B5002440F2255127
:100B40001A4800F06FF800282FD0184800F026F956
:100B5000C4B2214616A0FFF763FB212C0AD11A4824
:100B6000006808B9012000E000201749086000F083
:100B700029FA1AE03F2C0AD11348006808B901206D
:100B800000E000201049086000F03CFA0DE02A2C3B
:100B90000BD10D48006808B9012000E000200A4987
:100BA00008604FF4E17000F053F910BD00380140C7
:100BB0000D0A726563656976656420646174613AE3
:100BC0002532780D0A0000008881224210B50024E9
:100BD00040F22551064800F025F838B1044800F0ED
:100BE000DDF8C4B2214603A0FFF71AFB10BD0000D8
:100BF000004400400D0A726563656976656420648F
:100C00006174613A2532780D0A00000021B18289B1
:100C100042F40052828104E082894DF6FF731A404B
:100C20008281704770B50246002400230025002011
:100C300040F66A16B14200D100BFC1F3421501F07F
:100C40001F03012606FA03F3012D02D196893340D2
:100C500006E0022D02D1168A334001E0968A334025
:100C60000C12012606FA04F41688344013B10CB1B4
:100C7000012000E0002070BDF0B5034600240026EE
:100C80000025002040F66A17B94200D100BF18467F
:100C9000C1F3421401F01F06012707FA06F5012CE3
:100CA00001D10C3004E0022C01D1103000E01430EE
:100CB0001AB107682F43076002E00768AF43076077
:100CC000F0BD00002DE9F04786B005460E46002431
:100CD000A24600BFA1460027B08900B100BF2F4641
:100CE0002C8A4CF6FF700440F08804432C82AC89B7
:100CF0004EF6F3100440B0883189084371890843E7
:100D00000443AC81AC8A4FF6FF400440B0890443F1
:100D1000AC8201A8FFF7E6FD1F48874202D1DDF84B
:100D200010A001E0DDF80CA0A88900F4004040B15B
:100D30000AEBCA0000EB0A1031684900B0FBF1F879
:100D400007E00AEBCA0000EB0A1031688900B0FB2B
:100D5000F1F86420B8FBF0F004012009642101FBE4
:100D60001089A88900F4004040B1322000EBC9008E
:100D7000B0FBF1F000F00700044308E0322000EB84
:100D800009106421B0FBF1F000F00F0004432C8146
:100D900006B0BDE8F08700000038014001468888B1
:100DA000C0F30800704700BFFEE730380A2801D2C0
:100DB0000120704700207047014600BF70470000C7
:100DC00010B56FF00400FFF76DFE0A4800680A498D
:100DD000B0FBF1F0094908700846007800EB4001CB
:100DE000C1EBC0104FF6FF7101EAC0000449088052
:100DF00010BD00000000002000127A00200000203A
:100E0000220000200146114A12884A434FF0E02395
:100E10005A6100229A611A46126942F001021A616F
:100E200000BF4FF0E022106900F001021AB100F497
:100E30008032002AF5D04FF0E022126922F0010240
:100E40004FF0E0231A6100229A61704722000020CF
:100E500010B504460221204600F086F842F21070D8
:100E6000FFF7D0FF10BD000000BF054A128802F056
:100E70004002002AF9D0C2B2014B1B1D1A807047F4
:100E8000003801400146002200BF1046531C9AB2B0
:100E9000085C0028F9D1501E80B270470024FFF78B
:100EA0008FFF4FF4A060FFF7F1FC4FF4E13000F04A
:100EB000D7F8FFF797FC0220FFF794FB10E00948F2
:100EC000008800F4004030B107A0FFF7A9F9002026
:100ED0000449088004E0601C84B20A20FFF792FFF6
:100EE000EDE70000480000200D0A0D0A0000000098
:100EF00070B50446002505E04FF47A70FFF782FFD5
:100F0000681CC5B2A542F7DB70BD0000F0B5054610
:100F10000E462846FFF7B6FF0746002400BF1CE038
:100F2000012E0BD1285D0E49088000BF0C48001F20
:100F3000008800F040000028F8D00CE0022E0AD112
:100F4000285D0849088000BF0648001F008800F09F
:100F500040000028F8D0601C84B2BC42E0DBF0BD49
:100F6000043801400444004070B504460D4613485F
:100F70000068844202DA1148046805E010480068FD
:100F8000844201DD0E4804682DB9A1B24FF08040C3
:100F9000FFF7CEFD10E0012D04D1A1B2A807FFF7A5
:100FA000C9FD09E0A1B24FF08040FFF7C1FDA1B239
:100FB0004FF08040FFF7BEFD70BD00001400002020
:100FC0001800002010B5022140F28330FFF7CCFF5B
:100FD00005A0FFF725F942F21070FFF713FF06A0F6
:100FE000FFF71EF910BD00000D0A73746F70706575
:100FF00064210D0A000000000D0A737461727421EF
:101000000D0A000070B5012600251048046819E09B
:101010006D1CC820FFF7F6FE0EB1143400E0143C3E
:101020000B480068844200DB0026084800688442C0
:1010300000DC012602212046FFF796FF214605A08D
:10104000FFF7EEF8642DE3DB70BD00001400002014
:10105000180000200D0A70776D3A25640D0A000013
:1010600010B586B00446012144F20500FFF72AFCC2
:1010700001213C48FFF716FC4FF40070ADF8140056
:1010800003208DF8160018208DF8170005A93648A2
:10109000FFF71AFB4FF48060ADF8140004208DF8C0
:1010A000170005A93048FFF70FFB0420ADF8140026
:1010B00018208DF8170005A92B48FFF705FB08201D
:1010C000ADF8140004208DF8170005A92648FFF795
:1010D000FBFA25208DF8000003208DF801008DF823
:1010E000020001208DF803006846FFF797FB2620D9
:1010F0008DF8000002208DF8010003208DF8020019
:1011000001208DF803006846FFF788FB019400205A
:10111000ADF80800ADF80A00ADF80C00ADF810000D
:101120000C20ADF80E0001A91048FFF7CBFD01A976
:101130000F48FFF7C7FD012240F225510B48FFF78A
:101140009BFD012240F225510948FFF795FD012141
:101150000648FFF75BFD01210548FFF757FD06B084
:1011600010BD0000010002000008014000380140ED
:10117000004400403031323334353637383941425B
:1011800043444546403058003031323334353637E9
:10119000383961626364656640307800BC110008CC
:1011A000000000204C0000006C010008081200083C
:1011B0004C000020640600008801000800A24A04D8
:1011C00000000000000000000102030406070809F7
:1011D000FA0000008303000000000000000000008F
:1011E00000000000010203040102030406070809CD
:1011F00002040608FA00000083030000000000005B
:081200000000000000000000E6
:04000005080001DD11
:00000001FF
