:020000040800F2
:1000000048080020D50100085D06000855060008D4
:100010005906000889040008630C0008000000006D
:10002000000000000000000000000000FD070008C4
:100030008D04000800000000E50600081109000812
:10004000EF010008EF010008EF010008EF010008D0
:10005000EF010008EF010008EF010008EF010008C0
:10006000EF010008EF010008EF010008EF010008B0
:10007000EF010008EF010008EF010008EF010008A0
:10008000EF010008EF010008EF010008EF01000890
:10009000EF010008EF010008EF010008EF01000880
:1000A000EF010008EF010008EF010008EF01000870
:1000B000EF010008EF010008EF010008EF01000860
:1000C000EF010008EF010008EF010008EF01000850
:1000D000EF0100087D0900084D0A0008EF01000843
:1000E000EF010008EF010008EF010008EF01000830
:1000F000EF010008EF010008EF010008EF01000820
:10010000EF010008EF010008EF010008EF0100080F
:10011000EF010008EF010008EF010008EF010008FF
:10012000EF010008EF010008EF010008EF010008EF
:1001300000F002F800F03FF80AA090E8000C8244BA
:100140008344AAF10107DA4501D100F034F8AFF297
:10015000090EBAE80F0013F0010F18BFFB1A43F0A5
:100160000103184794130000B4130000103A24BF91
:1001700078C878C1FAD8520724BF30C830C144BF0C
:1001800004680C607047000000230024002500264E
:10019000103A28BF78C1FBD8520728BF30C148BFEA
:1001A0000B607047642900F07780002070471FB50E
:1001B0001FBD10B510BD00F037F91146FFF7F7FF6E
:1001C00000F018FF00F055F903B4FFF7F2FF03BC8D
:1001D00000F049FD0948804709480047FEE7FEE76F
:1001E000FEE7FEE7FEE7FEE7FEE7FEE7FEE7FEE7E7
:1001F00004480549054A064B7047000015090008E8
:10020000310100084802002048080020480400206E
:1002100048040020704700000FB4044910B503AA39
:10022000029800F0D3F810BC5DF814FB70000020B9
:100230002DE9F0410E460446002020622046E16888
:10024000884730B3252805D0D4E901219047206A9A
:10025000401CF2E7E168204600278847050018D0D7
:10026000A5F14100192802D820354FF40067324625
:10027000294620462760FFF795FF40B1012804D0AA
:10028000F61D26F007060836D8E7361DD6E72846BD
:10029000DAE7206ABDE8F0812DE9F0410646002446
:1002A00010687529314616A510D0AFF300800028DC
:1002B00002DA404213A507E031688A0701D512A58A
:1002C00002E0490704D511A5012401E0AFF3008045
:1002D00000210A2206F1240709E0B0FBF2FCB0FB82
:1002E000F2F302FB1C00303078541846491C0028F9
:1002F000F3D123462A463046BDE8F04100F00CB861
:10030000000000002D0000002B0000002000000075
:1003100070477047704770472DE9F0470D46994682
:100320009246044600F124080168880604D5E06975
:1003300021F01001216000E00120A84201DD471BEF
:1003400000E00027A1697A1902EB0900081AA061F0
:100350002078C00602D42046AFF30080002608E0D3
:10036000D4E901211AF806009047206A401C761C47
:1003700020624E45F4DB2078C0060AD52046AFF354
:10038000008006E0D4E9012130209047206A401C1B
:100390002062381EA7F10107F4DC07E0D4E901214F
:1003A00018F805009047206A401C2062281EA5F11D
:1003B0000105F3DC2046AFF300802078000602D56B
:1003C0000220BDE8F0870120FBE70000074B70B575
:1003D0000D467B4400F011F80446284600F020F852
:1003E00010B14FF0FF3070BD204670BDEB0B000028
:1003F00001694A1C02610878704700B58FB0CDE9E9
:1004000001310021059105497944CDE903101146D8
:100410006846FFF70DFF0FB000BD0000E5FFFFFFCE
:10042000007B00F080007047754600F029F8AE466A
:1004300005006946534620F00700854618B020B5F0
:10044000FFF7D6FEBDE820404FF000064FF0000752
:100450004FF000084FF0000B21F00701AC46ACE86C
:10046000C009ACE8C009ACE8C009ACE8C0098D46D9
:1004700070470446AFF300802046FFF7A5FE00005A
:1004800000487047E801002000BFFEE77047000009
:1004900010B5044600F016FC012000F031FE2146A4
:1004A00006A000F0F5FE142000F02AFE21460CA064
:1004B00000F0EEFE012000F023FE10BD41542B435E
:1004C000574A41503D2233333342222C22797972EC
:1004D000647869616F6B656169220D0A0000000034
:1004E00041542B43495053544152543D225443509C
:1004F000222C223139322E3136382E302E313039FD
:10050000222C32303030300D0A0000002DE9F0414D
:10051000024600250026002000230024002791F831
:1005200003C00CF00F0591F803C00CF0100CBCF1E7
:10053000000F03D091F802C04CEA050591F800C005
:10054000BCF1000F31D0146800202BE04FF0010CFB
:100550000CFA00F3B1F800C00CEA03069E4220D169
:1005600083004FF00F0C0CFA03F7BC4305FA03FCB1
:100570004CEA040491F803C0BCF1280F06D14FF0F7
:10058000010C0CFA00FCC2F814C00AE091F803C098
:10059000BCF1480F05D14FF0010C0CFA00FCC2F879
:1005A00010C0401C0828D1D31460B1F800C0BCF1C1
:1005B000FF0F34DD546800202EE000F1080C4FF0EE
:1005C000010808FA0CF3B1F800C00CEA03069E42D9
:1005D00021D183004FF00F0C0CFA03F7BC4305FA4E
:1005E00003FC4CEA040491F803C0BCF1280F05D1C8
:1005F00000F1080C08FA0CF8C2F8148091F803C056
:10060000BCF1480F07D100F1080C4FF0010808FABF
:100610000CF8C2F81080401C0828CED35460BDE806
:10062000F08101617047000008B5F020ADF80000CE
:1006300003208DF8020010208DF80300694604485D
:10064000FFF764FFF0210248FFF7EBFF08BD000051
:100650000008014000BFFEE700BFFEE77047000052
:1006600070B5002100230F22C47804B3154C246810
:1006700004F4E064C4F5E064210AC1F10403CA4053
:10068000447804FA03F184781440214309010E4CA4
:100690000678A155047804F01F050124AC400578C4
:1006A0006D11AD0005F1E025C5F8004109E00478C1
:1006B00004F01F050124AC40044D0678761145F87E
:1006C000264070BD0CED00E000E400E080E100E0B9
:1006D00002490143024A1160704700000000FA0518
:1006E0000CED00E07047000029B1064AD2690243D0
:1006F000044BDA6104E0034AD2698243014BDA61B8
:10070000704700000010024029B1064A9269024376
:10071000044B9A6104E0034A92698243014B9A6157
:10072000704700000010024030B500210022002474
:1007300000232D4D6D6805F00C0121B1042905D071
:10074000082923D105E0294D056022E0274D0560E9
:100750001FE0254D6D6805F47012234D6D6805F49A
:100760008034022505EB92421CB9214D55430560AA
:100770000BE01D4D6D6805F400351DB11C4D554352
:10078000056002E0194D5543056002E0174D056014
:1007900000BF00BF144D6D6805F0F0010909154D4B
:1007A0006B5C0568DD4045600F4D6D6805F4E061E8
:1007B000090A104D6B5C4568DD4085600A4D6D6827
:1007C00005F46051C90A0B4D6B5C4568DD40C5609E
:1007D000054D6D6805F44041890B074D6B5CC5689C
:1007E000B5FBF3F5056130BD0010024000127A0040
:1007F00000093D005000002060000020704710B547
:1008000000F002F810BD00000CB50020019000902F
:100810003348006840F480303149086000BF3048F8
:10082000006800F4003000900198401C019000988E
:1008300018B90198B0F5A06FF1D12948006800F40B
:10084000003010B10120009001E0002000900098DD
:10085000012843D12348006840F010002149086076
:100860000846006820F0030008600846006840F071
:10087000020008601A484068194948600846406804
:1008800048600846406840F4806048600846406818
:1008900020F47C1048600846406840F4E810486046
:1008A0000846006840F08070086000BF0C4800688F
:1008B00000F000700028F9D00948406820F00300DB
:1008C000074948600846406840F00200486000BFA1
:1008D0000348406800F00C000828F9D10CBD000066
:1008E0000010024000200240042808D14FF0E0210F
:1008F000096941F004014FF0E022116107E04FF077
:10090000E021096921F004014FF0E02211617047F4
:100910007047000010B51348006840F0010011490D
:10092000086008464068104908400E49486008467B
:1009300000680E4908400B4908600846006820F42A
:10094000802008600846406820F4FE0048604FF4AC
:100950001F008860FFF753FF4FF0006004490860F4
:1009600010BD0000001002400000FFF8FFFFF6FE7F
:1009700008ED00E0818670470187704770B500245C
:10098000002540F22551294800F0AAF800284BD054
:10099000264800F061F9C4B22548007810B925480E
:1009A000047070BD244801780078401C224A107001
:1009B0002248445400F05AF9012805D100201E496C
:1009C000087001201E4908701B480078022817DBB8
:1009D00019480078402813DA17480078801E174914
:1009E000085C0D280CD114480078401E085C0A28C9
:1009F00006D1114800781349087000200E4908708C
:100A00000D48007840280FDB0C4890F83E000D2878
:100A100007D10A4890F83F000A2802D101200A496C
:100A2000087000200449087000BFBAE70038014090
:100A30000D0000200C00002010000020EB00002022
:100A40000F000020110000200E00002010B500242F
:100A500040F22551194800F043F868B3174800F0F8
:100A6000FBF8C4B216480470212C0AD1154800685E
:100A700008B9012000E000201249086000F064FC81
:100A80001AE03F2C0AD10F48006808B9012000E0A5
:100A900000200C49086000F077FC0DE02A2C0BD1F7
:100AA0000848006808B9012000E0002005490860F6
:100AB0004FF4E17000F078FA10BD000000440040EF
:100AC0000C0000208881224221B1828942F4005228
:100AD000828104E082894DF6FF731A40828170475B
:100AE00070B50246002400230025002040F66A1657
:100AF000B14200D100BFC1F3421501F01F0301262E
:100B000006FA03F3012D02D19689334006E0022D47
:100B100002D1168A334001E0968A33400C12012636
:100B200006FA04F41688344013B10CB1012000E039
:100B3000002070BDF0B503460024002600250020EB
:100B400040F66A17B94200D100BF1846C1F34214FB
:100B500001F01F06012707FA06F5012C01D10C3020
:100B600004E0022C01D1103000E014301AB1076803
:100B70002F43076002E00768AF430760F0BD000045
:100B80002DE9F04786B005460E460024A24600BF78
:100B9000A1460027B08900B100BF2F462C8A4CF631
:100BA000FF700440F08804432C82AC894EF6F310A9
:100BB0000440B08831890843718908430443AC81FB
:100BC000AC8A4FF6FF400440B0890443AC8201A8D0
:100BD000FFF7AAFD1F48874202D1DDF810A001E00F
:100BE000DDF80CA0A88900F4004040B10AEBCA006F
:100BF00000EB0A1031684900B0FBF1F807E00AEB9E
:100C0000CA0000EB0A1031688900B0FBF1F86420DB
:100C1000B8FBF0F004012009642101FB1089A889C8
:100C200000F4004040B1322000EBC900B0FBF1F00D
:100C300000F00700044308E0322000EB09106421B3
:100C4000B0FBF1F000F00F0004432C8106B0BDE8CA
:100C5000F08700000038014001468888C0F3080092
:100C6000704700BFFEE7014600BF70471348007899
:100C7000082820DB1148007808381149085C2B2827
:100C800019D10E480078C01F085C492813D10B48C1
:100C90000078801F085C50280DD108480078401F5C
:100CA000085C442807D105480078001F085C2C2800
:100CB00001D1012070470020FCE700001000002057
:100CC000EB00002000BF0748008800F0400000282B
:100CD000F9D000BF0448008800F040000028F9D097
:100CE00070470000003801400044004010B57D4BC3
:100CF0001B789B117C4C23707A4B5B78794C247861
:100D000004F03F0443EA0423784C2380754B9B781E
:100D1000DB111B02764C2380724B9B789B111B02CC
:100D20006380704B9B785B111B02724C23806D4B70
:100D30009B781B111B02638002220321012038E0F3
:100D4000684B9B5C0B414FF6FF7404EA03236A4C2B
:100D500024F820304B1ED9B2624B9B5C0B414FF6FE
:100D6000FF7404EA0323644C04EB800463804B1E8D
:100D7000D9B25C4B9B5C0B414FF6FF7404EA032332
:100D80005E4C24F820304B1ED9B2564B9B5C0B4175
:100D90004FF6FF7404EA0323584C04EB800463808D
:100DA0004B1ED9B2002902DA0721531CDAB2431CC8
:100DB000D8B20528C4DD4E4B1B884A4C64792343C6
:100DC0004B4C238023465B88464CA4792343484CF4
:100DD0006380484B1B88434CE4792343454C238074
:100DE00023465B883F4C247A2343424C63803D4B2F
:100DF0005B7A9B10424C2370424B5B78394C647A8F
:100E000004F0030423433F4C637023469B78354C26
:100E1000A47A43EA94133B4CA3702346DB78314C0D
:100E2000A47AC4F301142343364CE37023461B79A0
:100E30002C4CA47AC4F381042343324C23712346FF
:100E40005B79284CA47A04F0030423432D4C63718E
:100E5000012027E0431E0B2404EB8303214CE35CB9
:100E6000254C24F82030431E0C2404EB83031D4C36
:100E7000E35C214C04EB80046380431E0D2404EBEF
:100E80008303184CE35C1D4C24F82030431E0E24D1
:100E900004EB8303134CE35C184C04EB8004638085
:100EA000431CD8B20528D5DD0E4BDB7F164C2370D2
:100EB0000C4B93F82030154C23700A4B93F82230DA
:100EC000084C94F8214043EA0423114C2380054B3D
:100ED00093F82430034C94F8234043EA04230D4C48
:100EE000238010BD8200002012000020140000208A
:100EF000160000201A000020B8010020D0010020B8
:100F00001E0000201F0000202500002026000020D9
:100F1000280000202A00002010B56FF00400FFF721
:100F2000E3FC0A4800680A49B0FBF1F0094908707F
:100F30000846007800EB4001C1EBC0104FF6FF718E
:100F400001EAC0000449088010BD00002C00002008
:100F500000127A004C0000204E0000200146114A89
:100F600012884A434FF0E0235A6100229A611A46E0
:100F7000126942F001021A6100BF4FF0E0221069CD
:100F800000F001021AB100F48032002AF5D04FF0CF
:100F9000E022126922F001024FF0E0231A610022E0
:100FA0009A6170474E00002010B504460221204689
:100FB00000F09CF942F21070FFF7D0FF10BD000066
:100FC00000BF054A128802F04002002AF9D0C2B2DE
:100FD000014B1B1D1A80704700380140014600225A
:100FE00000BF1046531C9AB2085C0028F9D1501E6D
:100FF00080B2704700BF00BF0024FFF78DFF4FF4A1
:10100000A060FFF765FB4FF4E13000F0EBF9FFF76C
:101010000BFB0120FFF73CFA012026490870FFF77F
:1010200051FE45E02448007870B1234800782349F8
:10103000088000BF2148001F008800F04000002801
:10104000F8D000201C4908701D48007830B10221FA
:101050001CA000F01DF90020194908701D480078F7
:1010600010B100201B4908701B48007800B3002015
:1010700019490870022119A000F00AF9002411E0B2
:101080001D48005D1D4908550846005D0B49088054
:1010900000BF0A48001F008800F040000028F8D078
:1010A000601CC4B2402CEBDBFFF720FE00F036F8EA
:1010B000B8E700000D0000200C00002004440040B0
:1010C0000F000020426567696E6E696E672E2E2ED6
:1010D0000D0A0000110000200E0000200D0A5265CC
:1010E0006365697665207375636365737366756C94
:1010F0006C792021210D0A00EB00002082000020E5
:1011000070B50446002505E04FF47A70FFF726FF1E
:10111000681CC5B2A542F7DB70BD000000B5022116
:101120001AA000F0B5F802211C48007800F068F819
:1011300002211BA000F0ACF802211D48008800F03D
:101140005FF802211BA000F0A3F81F4908880221C4
:1011500000F056F802211DA000F09AF81A494888BC
:10116000022100F04DF802211CA000F091F81F4967
:101170000888022100F044F802211DA000F088F840
:101180001A494888022100F03BF800BD67616D658F
:101190005374617475733A2000000000120000203F
:1011A0000D0A6E6F77526F756E643A200000000072
:1011B000140000200D0A6D79506F736974696F6EA9
:1011C0002E783A2000000000160000200D0A6D79EC
:1011D000506F736974696F6E2E7920000D0A6F70FD
:1011E000506F736974696F6E2E7820001A000020AA
:1011F0000D0A6F70506F736974696F6E2E790000FD
:1012000070B50A460023002100241E4D6C700EE0CC
:101210000A2490FBF4F504FB1504E5B25C1CE4B26F
:101220002346184E35550A2490FBF4F4A0B200284A
:10123000EED103B90123194620E0012A0DD1114C4A
:10124000645C3034104D2C8000BF0F4C241F248868
:1012500004F04004002CF8D00EE0022A0CD1094C16
:10126000645C3034094D2C8000BF084C241F248856
:1012700004F04004002CF8D04C1EE1B20129DCDA65
:1012800070BD000078000020043801400444004094
:10129000F0B505460E462846FFF7A0FE0746002497
:1012A00000BF1CE0012E0BD1285D0E49088000BF55
:1012B0000C48001F008800F040000028F8D00CE027
:1012C000022E0AD1285D0849088000BF0648001F89
:1012D000008800F040000028F8D0601C84B2BC42B6
:1012E000E0DBF0BD043801400444004070B5044622
:1012F0000D4613480068844202DA1148046805E08C
:1013000010480068844201DD0E4804682DB9A1B27E
:101310004FF08040FFF72EFB10E0012D04D1A1B269
:10132000A807FFF729FB09E0A1B24FF08040FFF7C3
:1013300021FBA1B24FF08040FFF71EFB70BD000003
:10134000400000204400002010B5022140F283300C
:10135000FFF7CCFF05A0FEF75FFF42F21070FFF72A
:10136000FDFD06A0FEF758FF10BD00000D0A7374C6
:101370006F70706564210D0A000000000D0A73741F
:10138000617274210D0A000070B501260025104815
:10139000046819E06D1CC820FFF7E0FD0EB114349D
:1013A00000E0143C0B480068844200DB002608483B
:1013B0000068844200DC012602212046FFF796FFE8
:1013C000214605A0FEF728FF642DE3DB70BD000079
:1013D00040000020440000200D0A70776D3A25641B
:1013E0000D0A000010B586B00446012144F2050044
:1013F000FFF78AF901213C48FFF776F94FF40070B6
:10140000ADF8140003208DF8160018208DF8170091
:1014100005A93648FFF77AF84FF48060ADF814005C
:1014200004208DF8170005A93048FFF76FF8042055
:10143000ADF8140018208DF8170005A92B48FFF708
:1014400065F80820ADF8140004208DF8170005A9F0
:101450002648FFF75BF825208DF8000003208DF863
:1014600001008DF8020001208DF803006846FFF7A7
:10147000F7F826208DF8000002208DF801000320E7
:101480008DF8020001208DF803006846FFF7E8F8A8
:1014900001940020ADF80800ADF80A00ADF80C008A
:1014A000ADF810000C20ADF80E0001A91048FFF7B0
:1014B00067FB01A90F48FFF763FB012240F22551AA
:1014C0000B48FFF737FB012240F225510948FFF78F
:1014D00031FB01210648FFF7F7FA01210548FFF724
:1014E000F3FA06B010BD0000010002000008014040
:1014F000003801400044004018150008000000209A
:10150000780000006C0100089015000878000020A9
:10151000D007000088010008FA00000083030000E3
:1015200000000000000000000000000000000000BB
:1015300000000000000000000000000000000000AB
:101540000000000000A24A040000000000000000AB
:101550000102030406070809FA00000083030000E3
:101560000000000000000000000000000102030471
:10157000010203040607080902040608FA00000035
:1015800083030000000000000000000000000000D5
:04000005080001D519
:00000001FF
